:020000040800F2
:1000000050F9002085010008D1F10008C1980008CE
:1000100067E80008252900087DA601080000000007
:100020000000000000000000000000005F32010836
:10003000A5440008000000004501000821630108F4
:100040009F0100089F0100089F010008C90A0108DC
:100050009F0100089F0100089F0100089F01000800
:100060009F0100089F0100089F0100089F010008F0
:100070009F0100089F010008814100089F010008BE
:10008000B14100089F0100089F0100089F0100087E
:100090009F0100089F0100089F0100089F010008C0
:1000A0009F0100089F0100089F0100089F010008B0
:1000B0009F010008856F0108C16F01089F010008BA
:1000C0009F0100089F0100089F0100089F01000890
:1000D0009F0100089F010008A18A01089F010008F4
:1000E0009F0100089F0100089F0100089F01000870
:1000F0009F0100089F0100089F0100089F01000860
:100100009F0100089F0100080D7001089F01000871
:100110009F0100089F0100089F010008ED70010881
:100120009F0100089F0100089F0100089F0100082F
:10013000DFF80CD000F044FC0048004771130208BF
:1001400050F9002072B6EFF309800A4A0A4B20B139
:10015000203880E8F00F11680860186810600068A7
:1001600090E8F00F203080F309884EF0040E62B65C
:10017000704700BFE4110020E811002080F30988D7
:10018000704700000648804706480047FEE7FEE744
:10019000FEE7FEE7FEE7FEE7FEE7FEE7FEE7FEE737
:1001A000096901083101000810B5431A934209D2C8
:1001B0008318881803E010F8011D03F8011D521E72
:1001C000F9D210BD40EA01039B0703D009E008C93A
:1001D000121F08C0042AFAD203E011F8013B00F80C
:1001E000013B521EF9D210BDD2B201E000F8012B42
:1001F000491EFBD270470022F6E710B513460A46A7
:1002000004461946FFF7F0FF204610BD30B50546FD
:100210002A460B4612F8010B13F8014B08B1A04215
:10022000F8D01CB1002802D06D1CF1E7284630BD83
:10023000421C10F8011B0029FBD1801A70470346AD
:1002400011F8012B00F8012B002AF9D1184670474C
:1002500070B506461EF0D4FF046805460A22002148
:10026000304600F009FA2C6070BDF0B480EA01025B
:10027000D40F4200B2EB410F02D2024608461146AB
:100280004A0042D0C30DDDB2C1F3C752AD1A202DD2
:1002900035DAC1F3160141F4000204B15242C5F14E
:1002A000200602FA06F12A411044B3EBD05F23D0B6
:1002B000C4B1012DA0EBC35009DCF0BC4FF00042EB
:1002C00002EAC352DBB200F5000000F016BA4000AB
:1002D00000F1807000EBC350A0F1807040EAD17053
:1002E000490009E0490841EAC071A0EBC35000F59C
:1002F0000000400800EBC350F0BC00F0F5B96142CB
:10030000012202EB4101001BF6E7F0BC704781F0CF
:100310000041AAE780F00040A7E780EA010210B59B
:1003200002F00043400022D04A001FD0010E01EB32
:100330001261C0F35600C2F3560240F4000042F4CA
:100340000002A0FB022000047F39140400D0401CEE
:1003500050EA124001D44000491EC2B20C0604EB20
:10036000D010401C4008802A02D003E0002010BDBD
:1003700020F00100002900DA0020184310BD2DE90B
:10038000FE4F81EA030404F0004421F00041009490
:100390004FF0000B23F0004350EA01045ED052EA14
:1003A00003045BD0C3F30A54C1F30A552C44A4F2EE
:1003B000F3340194A0FB0254C1F3130141F4801102
:1003C000C3F3130343F4801301FB024400FB034E09
:1003D000840A970A44EA815447EA8357A4FB0768D2
:1003E00002958D0A05FB07854FEA932C04FB0C54FC
:1003F0002705029D4FEA065847EA1637B5EB080570
:100400006EEB070C870E920E47EA811742EA8312C1
:10041000A7FB0201B6EB0B0164EB00042B0D43EAD2
:100420000C335E1844EB1C50DA465146E7FB0201E0
:10043000C5F313044FEA0B3343EA14534FEA043273
:10044000019C43EA0603A4F10C040294009CCDE94C
:1004500000B400F08FF903B0BDE8F08F0020014632
:10046000F9E72DE9F04D81EA030404F0004B21F097
:10047000004514464FF0000A23F0004150EA0502FF
:1004800020D054EA01021DD0C5F30A570246C5F335
:100490001303C1F31300C1F30A5640F4801543F46B
:1004A0008013A7EB0608101BD64608F2FD3873EB45
:1004B000050002D308F1010801E092185B41B8F190
:1004C000000F03DA00200146BDE8F08D00204FF454
:1004D0008011064684460EE0171B73EB050705D313
:1004E000121B63EB050306434CEA010C49084FEA73
:1004F000300092185B4150EA0107EDD152EA030047
:1005000012D082EA040083EA0501084305D0101BDB
:10051000AB4106D20122002306E000224FF0004347
:1005200002E06FF0010253101AEB06004CEB085189
:1005300010EB0A0041EB0B01BDE8F04D00F00BB9E8
:1005400096230022114600F0D8B80EB540F2334190
:1005500002910021CDE900110A460B4600F00AF98C
:1005600003B000BD20F00040C10DC0F3160040F400
:1005700000007F2901DA00207047962903DCC1F1D1
:100580009601C840704796398840704700F0004295
:1005900030F000400AD0C10D01F56071C0F31600C3
:1005A00042EA0151C208400711437047002001464A
:1005B000704701F0004330B421F0004150EA0102DD
:1005C00006D00A0DA2F56072C1F31301002A02DC05
:1005D00030BC00207047440F44EAC104C100E01859
:1005E00030BC00EBC25000F07FB830B50B4601467E
:1005F00000202022012409E021FA02F59D4205D3C2
:1006000003FA02F5491B04FA02F52844151EA2F16B
:100610000102F1DC30BD2DE9F05F05460020924675
:100620009B4688460646814640241BE028464146B4
:100630004746224600F0E5F953465A46C01A914112
:1006400010D311461846224600F0CCF92D1A67EB5C
:1006500001084F4622460120002100F0C3F917EBA4
:1006600000094E41201EA4F10104DFDC484631465A
:100670002A464346BDE8F09F2DE9F04791460F46D4
:1006800080460446002614F8015B2DB100F0DCF929
:100690000068405DC007F6D12B2D02D02D2D18D05B
:1006A000641E4A463946204600F0D2F927B139681F
:1006B000A14201D1C7F8008071054FF002040BD5AB
:1006C0004042002803DD1EF09BFD0460A007BDE84A
:1006D000F08746F48066E4E70028F8DA1EF090FD23
:1006E00004606FF00040F2E70029A8BF7047401C8B
:1006F000490008BF20F00100704710B4B0FA80FC38
:1007000000FA0CF050EA010404BF10BC704749B174
:10071000CCF1200421FA04F411FA0CF118BF0121E4
:1007200021430843A3EB0C01CB1D4FEA00614FEAC4
:10073000102042BF002010BC704700EBC350104493
:100740000029A4BF10BC7047401C490008BF20F01E
:10075000010010BC704710B5141E73F1000408DAD4
:10076000401C41F1000192185B411A4301D120F075
:10077000010010BD2DE9F04D92469B4611B1B1FA32
:1007800081F202E0B0FA80F22032904600F02AF9BD
:1007900004460F4640EA0A0041EA0B0153465A4616
:1007A000084313D0114653EA010019D0C8F14002A2
:1007B000504600F026F905460E4650465946424638
:1007C00000F010F9084305D0012004E02046394626
:1007D000BDE8F08D0020054346EAE0762C43374320
:1007E0000A986305E40AA0EB08000022FD0A44EA27
:1007F00047540A3002D500200146E9E701051019E7
:100800006941DDE9084500196941BDE8F04DA2E7FD
:100810002DE9FE4F804681EA0300C00F0C46009090
:1008200021F0004123F00045B8EB0200A94105D2B8
:100830004046214690461C460B46024623F00040A7
:10084000104347D0270DC7F30A00C3F30A510290A3
:10085000401A019040286BDAC3F3130040F4801B68
:100860000098924620B10023D2EB030A63EB0B0BF6
:1008700001985946C0F14002504600F0B3F80646D0
:100880000D4650465946019A00F0CBF810EB08008F
:100890006141002487EA115284EAE7731A4340D089
:1008A000009A62B3019A012A4FEA075215DC001B35
:1008B00061EB02014FF0004202EA0752CDE900422B
:1008C000001C41F5801132462B46FFF753FF03B061
:1008D000BDE8F08F40462146F9E7001B61EB0201BD
:1008E000001C41F5801300185B412018A2F5001789
:1008F00047EB030140EAD570B6196D4111E06D0870
:100900004FEA360645EAC0754FEA0752001B61EB15
:100910000201001C41F5801149084FEA300000191E
:10092000514132462B4603B0BDE8F04FFFF713BFED
:100930000098012240000023D0EB020263EBE07339
:10094000009821464FEAE074B8EB000061EB040127
:10095000E9E783F000435BE781F0004158E7C1F32A
:100960000A52C1F3130140F2FF3341F480119A425D
:1009700002DA00200146704740F233439A42A2F265
:10098000334202DC524200F03CB800F02BB80000C9
:1009900030B5041E71F1000404DB4FF00044404206
:1009A00064EB0101141E73F1000405DB1C464FF0DB
:1009B0000043524263EB0403994208BF904230BDAA
:1009C000064C074D06E0E06840F0010394E807009C
:1009D00098471034AC42F6D3FFF7AEFBE425070886
:1009E00004260708202A04DB203A00FA02F100203E
:1009F00070479140C2F1200320FA03F3194390405D
:100A00007047202A04DB203A21FA02F000217047C7
:100A100021FA02F3D040C2F1200291400843194666
:100A20007047202A06DBCB17203A41FA02F043EA4E
:100A3000E07306E041FA02F3D040C2F12002914097
:100A400008431946704700000048704740160708E1
:100A50002DE9F05F82460078002715468B460AF1A3
:100A60000104B946302801D09DB113E014F8010B00
:100A70000127782803D0582801D045B10AE00DB1EC
:100A8000102D07D10027102514F8010B02E00825CE
:100A900000E00A250026B0460EE005FB080005FB35
:100AA00006F1012701EB10461FFA80F8B6F5803FEA
:100AB00000D3B94614F8010B294600F018F80028B5
:100AC000EBDABBF1000F05D00FB1641E00E0544615
:100AD000CBF80040B9F1000F06D01EF091FB0221C7
:100AE0000160C81EBDE8F09F48EA0640FAE73A28D0
:100AF00000D2303820F02002412A01D3A2F1370081
:100B0000884201D34FF0FF30704770B58C1810F851
:100B1000015B15F0070301D110F8013B2A1106D142
:100B200010F8012B03E010F8016B01F8016B5B1E5C
:100B3000F9D12B0705D40023521E0DD401F8013B37
:100B4000FAE710F8013BCB1A921C03E013F8015BA3
:100B500001F8015B521EF9D5A142D8D3002070BD27
:100B600021B1826842F00102826003E0826822F0D3
:100B7000010282607047000010B5044612488442AA
:100B800008D1012140150FF059FD002160150FF02B
:100B900055FD17E00D48844208D1012100150FF0E2
:100BA0004DFD002120150FF049FD0BE0084884425F
:100BB00008D10121C8030FF041FD00214FF400408E
:100BC0000FF03CFD10BD0000002401400028014052
:100BD000003C0140014600208A6802F004020AB18C
:100BE000012000E0002070470146C86C80B27047C9
:100BF0000246002013680B400BB1012000E00020EA
:100C00007047014600208A6802F008020AB10120FC
:100C100000E000207047000030B5024600200023AD
:100C200050680F4C20400D790C6844EA052420439D
:100C3000506090680B4C2040D1E902542C434D7910
:100C400044EA450420439060D06A20F470000C7C94
:100C5000641EE4B2234340EA0350D06230BD00007A
:100C6000FFFEF0FFFDF7F1FFF0B504460D46002052
:100C70000021092D11DDE068A5F10A0606EB460703
:100C8000072606FA07F18843A5F10A0606EB460691
:100C900003FA06F10843E0600CE0206905EB450724
:100CA000072606FA07F1884305EB450603FA06F125
:100CB00008432061072A0FDA606B561E06EB860791
:100CC0001F2606FA07F18843561E06EB860605FA2C
:100CD00006F10843606322E00D2A0FDA206BD61F6D
:100CE00006EB86071F2606FA07F18843D61F06EB98
:100CF000860605FA06F10843206310E0E06AA2F1D7
:100D00000D0606EB86071F2606FA07F18843A2F1B7
:100D10000D0606EB860605FA06F10843E062F0BD13
:100D2000816841F008018160704721B1826842F416
:100D3000A002826003E0826822F4A0028260704711
:100D4000816841F0040181607047000010B50446DD
:100D50000CE0002008490860052003F0C9FD0120CF
:100D60000649C1F8B401052003F0C2FD201EA4F11C
:100D70000101CCB2EDD110BDB481224200802242EB
:100D800070B50025002452225021214807F01AF99D
:100D9000002007F047FB1F4807F00CFB002007F07E
:100DA000FFFA6FF07F4007F0F9FA8C240A251A4900
:100DB00022464868294607F0E3F8133416492246CC
:100DC0008868294607F0DCF8133413492246C868BE
:100DD000294607F0D5F813340F49224608692946F9
:100DE00007F0CEF813340C4922464869294607F02B
:100DF000C7F80A4807F044F8AA3507492246886927
:100E0000294607F0BDF80449C86907F039F870BDF4
:100E1000443C02087CFC0508C4110020D8150020C1
:100E200010B53048D0F8E4102F48884730212E48BC
:100E3000417001218171022101716FF07F41C0F881
:100E40001E10002141821E21818240F23F11C18289
:100E5000F021018323482549D0F8D4202248904727
:100E60001E20224908704FF48860C1F8010000205C
:100E7000A1F805001E211D48A0F807104FF4A0712D
:100E8000A0F809105021A0F80B1016481849D0F806
:100E9000C4201548904795201549087015480862E8
:100EA0000020C1F80B004AF2FF50C1F807000220F1
:100EB000886100204870104848626420A1F803004F
:100EC0002B20A1F8050007480C49D0F8C42006489B
:100ED0009047962009490870F120C87400204862A4
:100EE00010BD000000120020B4270020BC4A0020E2
:100EF000CD4A00202C460608C4110020F94A0020E3
:100F00002DE9F05F0A2007F0ABFD0546FFF718FB5F
:100F10000446194801682046FFF7A7F916490860FA
:100F200016480078401C15490870084600780528C6
:100F30001FD111480068FFF729FB80464FF0663249
:100F40000F4BFFF71CFA064600224FF08043FFF7D5
:100F500016FA044600220B4BFFF783FA8246FFF78E
:100F600028FB094909680860002004490870024903
:100F70000860BDE8F09F0000E4130020E0130020AB
:100F800066660A400000D440D01300200022C91C2D
:100F900001F8032C21F8022C0A808A71CA714A6177
:100FA0008A60CA600A61C1F82520C1F8292081F849
:100FB0002E208A61CA61012281F82420D0F83E20C7
:100FC000C1F82F20C91EC0F83E107047002221F83A
:100FD000032F4A808A80CA80D0F842208A61C91EC5
:100FE000C0F84210704700220A804A808A80CA8076
:100FF000C1F81920C1F815207047000010B55648F7
:10100000D0F8E410554888470121554880F8AE1AB9
:10101000022180F8AC1A002180F8AF1A012180F873
:10102000B01A3F2180F8A91A6FF07F41C0F8C61AA4
:101030000021A0F8BA1A1E21A0F8BC1A4FF4A07122
:10104000A0F8BE1AD221A0F8C01A4649C0F8E21A88
:10105000C0F8DE1A40484449D0F8D4203F489047B1
:101060000120414908704FF48860C1F80100002058
:10107000A1F805001E213C48A0F807104FF4A0710C
:10108000A0F809105021A0F80B1033483749D0F8C8
:10109000C4203248904733203449087034480862ED
:1010A0003448C1F80B0002208861002048703248A3
:1010B00048621420A1F803006420A1F80500264826
:1010C0002E49D0F8C4202548904731202B4908707C
:1010D000274808620020C1F80B0002208861002028
:1010E00048702548303848627320A1F803002B204F
:1010F000A1F8050018481B49D0F8E0201748904790
:101100001520184908808C2048801920488200202A
:10111000888208204871012088716FF07F40C1F8F3
:101120000A00FF20C1F80E001548C86103200871AD
:101130000020C882152008844FF4957109488184E5
:101140008C214184A021C184002006498861044883
:101150009830886210BD000000120020642000203A
:10116000BC150020463B00207E3B00201A3B00209F
:101170002C460608A52A2A0044260208EE3A00203A
:10118000B822060800220A70D0F83220C1F80D20DB
:10119000C0F8321070470022491C01F8012C0A6087
:1011A0008A604A60D0F846208A60491EC0F846101E
:1011B00070470022491D4A600A60D0F82220CA60A8
:1011C000491FC0F82210704700224A620A70C1F815
:1011D0000F20CA7401228A7000224A61D0F82620AA
:1011E0008A62C0F8261070472DE9F05F05460F4669
:1011F00090469946DDE90AAB212020F081F90446AA
:101200000CB9BDE8F09FFF2020722760C4F8098068
:10121000C4F811A0C4F80D90C4F804B00020C4F8BC
:101220001D00D5F83A0028B90020C4F81900C5F807
:101230003A400CE0D5F83A6001E0D6F81D60D6F8E7
:101240001D000028F9D1C4F81960C6F81D40287E99
:10125000401C287600BFD4E70022491C0A814A813D
:101260008A81CA814A62C1F839208A710A754A7531
:10127000CA758A7581F83020CA71012201F8012CE3
:1012800000220A704A708A754A750A714FF07F42CF
:10129000C1F835201E224A710022C1F83120D0F851
:1012A0002E20C1F83D20491EC0F82E1070472DE9B0
:1012B000FE4F05460E4617469846DDE90DABDDF8B4
:1012C00030900297002028712876002423E00F98A0
:1012D000B8420DDA0AEB840009EB840308EB8402C0
:1012E000CDE9000B56F824102846FFF77DFF10E0EB
:1012F000CA2060430BEB80000AEB840109EB8403F6
:1013000008EB8402CDE9001056F824102846FFF7B8
:101310006BFF601CC4B202988442D8DBBDE8FE8F2C
:1013200000228A62CA610A714A720A728A618A71EB
:10133000CA62CA61D0F82A200A63C0F82A1070472E
:101340001A48007A042830D1184890F83D00032844
:1013500016DA164890F86700144991F86810884228
:1013600009D10020114981F86800084690F83D0035
:10137000401C81F83D0001200C4981F8640014E014
:101380000A4890F86700094991F86810884204DD1E
:101390000120064981F8640007E00020034981F834
:1013A0003D0081F8680081F864007047BC1500209A
:1013B00010B52748D0F8E410264888472821264849
:1013C00080F8891F012180F88B1F80F88C1F002175
:1013D000A0F89A1F1E21A0F89C1F4FF4A071A0F83E
:1013E0009E1FF021A0F8A01F1F21C0F8A61F1848BB
:1013F0001A49D0F8DC201748904712201749087086
:101400008220A1F801003220A1F80300FE204875D7
:101410001348C1F805000E481249D0F8C4200D4801
:10142000904731200F4908700F4808626FF07F40E5
:10143000C1F80B0002208861062048700B48486202
:101440006420A1F80300C820A1F8050010BD000029
:101450000012002044250020BC1500200428002094
:1014600070B605081A280020B82206085C22020877
:101470002DE9F04188B0044600250020B04981F8EC
:10148000680081F86900601E00EB8000AD4901EB47
:101490004006AD48062203A9D0F88C303046984764
:1014A000FE20A74981F836009DF80F0081F833002F
:1014B000084690F83300401E00EB8000A34901EB82
:1014C0008006A148142203A9D0F88C3030469847F2
:1014D0009DF818009A4981F835009DF81A701E2170
:1014E00097483E30FEF787FE954890F83300401E3F
:1014F00000EB8000954901EB80069348142203A974
:10150000D0F88C303046984703A8FEF791FE80460D
:101510008FA0052103AB4246CDE900108EA188487B
:101520003E301DF043FEA7F1300006282ED2DFE842
:1015300000F003062E77A3CB08B0BDE8F081804809
:1015400090F83300042303228649009086480DF06A
:1015500053F804207A490872084690F8660018B1DA
:10156000012081F8650007E0754890F8670018B120
:101570000120734981F864007C487149C1F8E40096
:101580009DF81800372801D113F0B0FED5E06E4861
:10159000012202A9D0F88C30754898479DF80800C0
:1015A000FF2812DC9DF8080000280EDD9DF80800D9
:1015B0004FF47A7100FB01F563486E4B2A46012116
:1015C000D0F868C00620E04729E09DF8080030BB4D
:1015D0005B4890F83300042303226249009062487C
:1015E0000DF00AF8042056490872084690F8660083
:1015F00018B1012081F8650007E0514890F86700B4
:1016000018B101204E4981F8640058484C49C1F88E
:10161000E4009DF81800372801D113F067FE8CE034
:101620004748007A032826D0454890F83300042321
:1016300003224C4900904C480CF0DEFF0420404946
:101640000872084690F8660018B1012081F865001C
:1016500007E03B4890F8670018B10120384981F84D
:10166000640042483649C1F8E4009DF81800372864
:1016700001D113F03BFE60E0314890F833000423C1
:1016800003223849009038480CF0B6FF04202C495A
:101690000872084690F8660018B1012081F86500CC
:1016A00007E0274890F8670018B10120244981F825
:1016B00064002E482249C1F8E4009DF8180037283C
:1016C00001D113F013FE38E01D48007A022827D01C
:1016D0001B4890F83300042303222249009022483B
:1016E0000CF08AFF042016490872084690F866003C
:1016F00018B1012081F8650007E0114890F86700F3
:1017000018B101200E4981F8640018480C49C1F84D
:10171000E4009DF8180037280ED113F0E7FD0BE028
:1017200009480A2214A1036914A0984706480A220E
:1017300011A1036915A0984700BF00BF00BFFBE6D9
:10174000BC15002000D007080012002018FA070876
:10175000416C61726D000000252E2A7320252E2A0F
:1017600073000000BAFD070800E0070844250020C8
:101770001AF80708794600084F4B000041542B43E4
:10178000434D5853544F50574156000041542B433A
:10179000434D58504C41595741563D2238372E77CA
:1017A0006176222C32000000012001490860704758
:1017B0008401214210B513F05BFFFFF7F9FD02F041
:1017C000B3FC01F057F910F0DDFA18F089FF12F0C0
:1017D00051FA11F071FE0CF053FEFFF721FB10BD22
:1017E0002DE9F04F97B08146884600200590444689
:1017F000641C20780D2843D000208DF818008DF847
:1018000019008DF81A001FE02078302806D0312802
:101810000CD032280ED0332814D10FE000208DF8E0
:1018200018008DF819008DF81A000BE001208DF8D2
:10183000180007E002208DF8190003E003208DF85E
:101840001A0000BF00BF641C20780D28DCD10120E5
:101850000590384801220DF11901C36F36489847A9
:101860003448012206A9C36F3348801C9847314889
:1018700001220DF11A01C36F2F48001D984704E0A3
:1018800020780D2801D101200590059800284ED020
:10189000284801220DF11901836F274898472548F0
:1018A000012206A9836F2448801C98472148012201
:1018B0000DF11A01836F2048001D98479DF818000C
:1018C00008B91EA504E09DF81800012800D11CA548
:1018D0009DF8190008B919A604E09DF8190002281E
:1018E00000D117A69DF81A0008B914A704E09DF8C6
:1018F0001A00032800D112A73846FEF799FC824649
:101900003046FEF795FC83462846FEF791FC2B46B1
:1019100002460C49CDE900B6CDE902A7049007A81C
:101920001DF044FC034807A982694846904717B058
:10193000BDE8F08F001200209EFC07084F6666008D
:101940004F6E00009C25070810B51E210748FEF7C2
:1019500052FC07A105481DF029FC012003493E392E
:1019600081F86500002081F8690010BDFA1500209B
:1019700041726D0030B589B04348D0F8E41000F2F0
:10198000646081427DD14048D0F8E400D0F8460040
:10199000002876D03C49D1F8CC003C491E228B6F00
:1019A00001A998473848D0F8E400D0F846000078FC
:1019B0000B2802D00C2863D13DE03348D0F8E40076
:1019C000D0F84600D0F801509DF81400F02814D14A
:1019D000FF22122101A8FEF707FC2DA101A81DF08E
:1019E000E5FBF1208DF814002749D1F8CC002749F8
:1019F0000F22CB6F01A9984713E0FF22122101A803
:101A0000FEF7F2FB25A101A81DF0D0FBF0208DF818
:101A100014001D49D1F8CC001C490F22CB6F01A93D
:101A20009847A878401CA8700020A8614FF47F0058
:101A3000C5F8070024E01448D0F8E400D0F84600C8
:101A4000D0F8014094F83000153001A9085C08B9BD
:101A5000012100E000212734607A153001AA1154D9
:101A60000949D1F8CC1001F1160008490722CB6FC3
:101A70000DF11A0198472078401C04F8270900BF8F
:101A800000BF09B030BD0000BC15002000120020CE
:101A90004175746F2044697361726D004175746F94
:101AA0002041726D000000002DE9F04389B08146AD
:101AB0002D48D0F8E41000F26460814251D12B48E7
:101AC0000068476C29480068017907F1080050F860
:101AD0002160D6F82E2092F83110D2F83A000BF09F
:101AE00085FC8046D8F8110005681F48C0F8CC5026
:101AF0001F481E2201A9836F284698471A48D0F82C
:101B0000E400D0F82A00B8B11748D0F8E400D0F8C3
:101B10002A4005F11400A061A16AA069144A936FDC
:101B200001229847246B05F11200A061A16AA06907
:101B30000F4A936F012298470B48D0F8E400D0F881
:101B4000260070B10848D0F8E400D0F82600C07C28
:101B5000FE2806D10448D0F8E400D0F82600C0F8EA
:101B60000F5009B0BDE8F083BC150020280000200C
:101B70000012002010B58AB000200190002429E056
:101B8000202102A8FEF737FB012208210DF11E00DB
:101B9000FEF72AFB621C11A102A81DF007FBF02032
:101BA0008DF8180004EB84010F4A02EBC1000F49C5
:101BB0000F22CB6F02A99847202102A8FEF71BFB3A
:101BC0000B4901EB440009490122CB6F01A9984759
:101BD000601CC4B2082CD3DB0AB010BD4175746F11
:101BE0002041726D20256400A0E507080012002046
:101BF000F4E6070810B500240CE004EB840000EBC9
:101C0000C400FE4BC118FE48D0F8FC20FD489047A8
:101C1000601CC4B20A2CF0DB0A20F8490870FA48AC
:101C2000C1F8010001F17500C1F805006838C1F87C
:101C300009000A204873F549F048C0F80E10014623
:101C4000C0F812101A30C1F816000B208876F0493F
:101C5000EA48C0F81B100D30E849C1F81F001A30DF
:101C6000C1F823000C2081F82700EA49E34881628B
:101C70001A30E249C8621A3008630C2081F8340037
:101C8000E4483630C1F8350001F12700C1F83900C9
:101C90001A30C1F83D000C2081F84100DD486C305D
:101CA000C1F8420001F13400C1F846001A30C1F811
:101CB0004A000C2081F84E00D648A230C1F84F00EF
:101CC00001F14100C1F853001A30C1F857000C204F
:101CD00081F85B00CF48D830C86501F14E00086636
:101CE0001A3048660C2081F86800CB48C1F86900BA
:101CF00001F15B00C1F86D001A30C1F871000C20D1
:101D000081F87500C4483630C1F8760001F16800EA
:101D1000C1F87A006838C0F87E10B948D0F8E410ED
:101D2000B8488847B549BD48C0F8AE16C0F8AA16ED
:101D3000012180F86A16072180F86616052180F8CF
:101D40006816022180F86C16382180F865166FF04D
:101D50007F41C0F882160021A0F876161E21A0F857
:101D600078164FF4A071A0F87A16F021A0F87C162E
:101D7000A549C0F89E16C0F89A16A44848630846BC
:101D8000A24948639E48A649D0F8D4209D48904770
:101D90000C20A34908704FF48860C1F801000020AE
:101DA000A1F805001E219E48A0F807104FF4A0716D
:101DB000A0F809105021A0F80B1091489949D0F8CB
:101DC000C420904890473E20964908709648086283
:101DD0000020C1F80B000220886100204870934861
:101DE00048624B20A1F803002B20A1F8050084488D
:101DF0008F49D0F8C4208348904740208C49087010
:101E00008C4808628C48C1F80B0002208861C02011
:101E1000C87401204870854848629B20A1F80300DF
:101E20006920A1F8050076488449D0F8C420754897
:101E300090474120814908707E4808627E48C1F879
:101E40000B0002208861C020C874022048707748C7
:101E500048620A20A1F803009120A1F80500684813
:101E60007749D0F8C42067489047312074490870FA
:101E7000704808627048C1F80B0002208861C020D9
:101E8000C87403204870694848620A20A1F803001A
:101E9000B920A1F805005A485D49D0F8C420594836
:101EA000904744205A49087062480862FF20C1F8F0
:101EB0000B000220886103204870FE20C8740020B7
:101EC00048628220A1F803009120A1F805004C4847
:101ED0004D49D0F8E0204B48904778204A49088087
:101EE00069204880022008721720488200208882DA
:101EF00048714FF47F00C1F80A00FF20C1F80E00BE
:101F00005048C861032008710020C88278200884E6
:101F10009B213D488184692141847D21C1843F48C2
:101F2000CA303949886214203C4981F8CA003448D3
:101F30003649D0F8E02033489047AF203349088035
:101F400069204880022008723B2048820020888255
:101F500048714FF47F00C1F80A00FF20C1F80E005D
:101F60003848C861052008710220C882AF20088463
:101F7000D72126488184692141847D21C184274855
:101F8000CB30224988620A20244981F8CB00002402
:101F9000CAE004EBC40000EB40001E4B03EB400121
:101FA0001748D0F8F82017489047601C04EBC4018C
:101FB00001EB4101174A02F81100C4EB04105A2149
:101FC00001EB400004EBC40101EB410102EB4101D4
:101FD000A1F80100C4EB04105A2101EB400004EB0E
:101FE000C40101EB410102EB4101A1F80500CD2044
:101FF00004EBC40101EB410126E00000B32E0020F8
:1020000000120020201C0020C92C0020012D0020DF
:10201000452C0020392D0020472E0020BC15002023
:10202000DC2B0020ED2B00202C460608B4220208F1
:10203000192C0020B8220608A52A2A00712C00209D
:102040009D2C00208832060802EB4101A1F8070010
:10205000002004EBC40101EB410102EB4101C1F896
:102060000F006FF07F4004EBC40101EB410102EB74
:102070004101C1F80B002E4804EBC40101EB410102
:1020800002EB4101C1F81700022004EBC40101EB8F
:10209000410102EB4101C1F813004FF47F0004EB52
:1020A000C40101EB410102EB41018862FF2004EB16
:1020B000C40101EB410102EB4101C862601C04EB69
:1020C000C40101EB410102EB410181F83000B9206C
:1020D00004EBC40101EB410102EB4101A1F8030053
:1020E000122004EBC40101EB410102EB41014872F3
:1020F000104804EBC40101EB410102EB4101C1F8BE
:102100001F0004EBC40000EB4000114601EB40004F
:102110008472094804EBC40101EB410102EB410167
:10212000C1F81B00601CC4B2072CFFF632AF10BD13
:102130003CF10508881600200424020830B589B057
:102140002A4890F8C5002A490978884201D109B087
:1021500030BDFF2026490870002443E0254901EBEB
:102160004400254901228B6F694698479DF800007D
:1021700080B304EB8400214901EBC0051E481E22F8
:1021800001A9836F28469847184890F8C700153072
:1021900001A9085CF0B19DF81600144991F8C4102B
:1021A00088421DD19DF81800104991F8C510884249
:1021B00016D10E4890F8C5000D4908709DF814001E
:1021C000F02802D0F1280BD105E0012109200EF002
:1021D00033F8BCE704E0022109200EF02DF8B6E741
:1021E000601CC4B2082CB9DB00BFB0E7BC150020EE
:1021F000E0000020F4E6070800120020A0E5070830
:1022000011B583B0FF2002909DF80C40012C13D033
:10221000022C1FD101231A460F4900900F480CF0E1
:10222000EBF916F09DFD022002900D48012202A953
:10223000C36F0C4898470DE001200B4981F85D0001
:102240000846D0F8E410E830814202D104200FF0B3
:1022500069F900BF00BF1FBDBEFD0708E0E1070828
:1022600000120020DEF90708BC15002010B5002080
:102270000E49887381F82D000D4908600D49C1F899
:1022800098010B49091D08600B480A220BA103693C
:102290000BA098470B480021016081800120034971
:1022A00008750121084814F034FF10BDBC1500204A
:1022B0009401214200002142001200204F4B0000F7
:1022C00041544800A0110020000C004010B501202E
:1022D0000EF0C4F900200EF0C1F910BD08B501469A
:1022E0000020009003480090009808440090009857
:1022F000008808BD006C004008B500220092044A26
:102300000092009A02440092009A116008BD0000F9
:10231000006C00402DE9F84304460D4690480168E2
:10232000904881427DD08E4801688F488142F9D023
:102330004FF6FF700D231E2229460090204609F01B
:10234000E3FA4FF6FF7005F1090C1FFA8CF304F164
:10235000210C1FFA8CF205F1030C1FFA8CF104F129
:102360001F0C00901FFA8CF0DFF800C2DCF8307010
:10237000B8477F48006800287DD17E4908707E48B4
:102380000068401C7C490860B0F5FA7F5AD37B484E
:102390000078401CC0B2794908701B284FDD00202E
:1023A0000870774908687749FDF7B7FF0746FEF7D9
:1023B000D9F8C6B2A6F12300072821D2DFE800F041
:1023C0001C1814100C0804001B206C49087017E03E
:1023D00017206A49087013E01320684908700FE05D
:1023E0000F20664908700BE00B206449087007E075
:1023F00003206249087003E000206049087000BFB4
:1024000000BF002005F10C0C1FFA8CF304F11D0C29
:102410001FFA8CF205F1010C1FFA8CF104F1010C8A
:1024200000E09AE0DFF85481009098F80080C444FE
:102430001FFA8CF0DFF834C1DCF83070B8470020A8
:102440004D4908604FF4FC6005F10B0C1FFA8CF34A
:10245000DFF828C100909CF800C00CF1020CA444E5
:102460001FFA8CF205F1020C1FFA8CF104F1020C38
:102470001FFA8CF000E005E0DFF8F0C0DCF8307007
:10248000B8476AE03E4908683E49FDF746FF0746FF
:10249000FEF768F8C6B237480078B04240D03548F9
:1024A0000670002005F10C0C1FFA8CF304F11D0CD2
:1024B0001FFA8CF205F1010C1FFA8CF104F1010CEA
:1024C00000901FFA8CF0DFF8A4C0DCF83070B84739
:1024D000284800782338072821D2DFE800F01C18AC
:1024E00014100C0804001B202449087017E0172062
:1024F0002249087013E01320204908700FE00F20D4
:102500001E4908700BE00B201C49087007E00320EF
:102510001A49087003E000201849087000BF00BF86
:102520004FF4FC6005F10B0C1FFA8CF3DFF84CC084
:1025300000909CF800C00CF1020CA4441FFA8CF22D
:1025400005F1020C1FFA8CF104F1020C1FFA8CF059
:10255000DFF818C0DCF83070B847BDE8F883000039
:1025600024140020442500207023002000120020A5
:10257000280121424914002044140020481400205E
:10258000BC150020000020412DE9FF4F91B08A4684
:102590009346FF200F9000200C9009902098801106
:1025A0000690002003904FF400600290DB491E98D3
:1025B00008611498486102981EF0A2FF07461FB9EF
:1025C000112015B0BDE8F08F40F224401EF098FFB6
:1025D0001090109820B938461EF0FAFD1120F0E74F
:1025E0000122DDE910011EF0A5FB0E900E980028D7
:1025F0007ED107AB4222394610981EF04AFC019763
:10260000019FB88BC11700EB5171C1F3C7010D9148
:10261000019FB87F0C90019FD7F81600BF498860D2
:10262000019FD7F812004860084600790D99484389
:1026300000F0030060B1B94840680D99484301219A
:1026400001EB90004FF6FF7101EA80000A9005E06F
:10265000B24880880D99484380B20A90AF484268DA
:102660000A990D9802FB1010C0B2089000260025B0
:10267000AA480089401E1FFA80F8A8484068A74968
:10268000496988427ED8A5488068A449096988427A
:10269000F8D80A99029890FBF1F080B20B90DDE92E
:1026A0000A10484380B202909C48808880B209900A
:1026B0000198D0F80A1010981EF040FA00200390FC
:1026C0001FE107AB3946029A10981EF0E2FB0E900C
:1026D0003C46BDF81C100298814206D0BDF81C1083
:1026E0000A9891FBF0F080B20B900D98022800E060
:1026F0000CE104D0032861D004285ED191E00020D1
:10270000059056E00C9838BB4FF0000920E0207887
:1027100000F01F0614F8011B01F0E00006EB400674
:1027200014F8011B06EB412086B20BEB080291B2B4
:102730000AEB050290B27A4A536B32469847681CFE
:1027400085B20398401C039009F101001FFA80F93B
:1027500009988145DBDB21E04FF000091BE014F80C
:10276000016B14F8011B06EB012086B20BEB08028B
:1027700091B20AEB050290B2694A536B3246984710
:10278000681C00E0BFE085B20398401C039009F18B
:1027900001001FFA80F909988145E0DB089804449C
:1027A0000025A8F101001FFA80F80598401C80B2AE
:1027B00005900B9905988842A4DB99E04FF0000939
:1027C00024E014F8011BCE1014F8011B4FF4FC6038
:1027D00000EAC100064414F8011B4FF4784000EAF7
:1027E0000120304486B2681C85B20BEB080291B21E
:1027F0000AEB050290B24A4A536B32469847039857
:10280000401C039009F101001FFA80F909988145E5
:10281000D7DB089804440025A8F101001FFA80F8CE
:1028200066E0002005905EE04FF000094DE014F8EE
:10283000011BCE1014F8011B4FF4FC6000EAC1002C
:10284000064414F8011B4FF4784000EA012030449C
:1028500086B214F8010B0F90069801281CD00BEBE0
:10286000080399B20AEB050398B22D4BDA6B904737
:1028700004900698022807D1209800F01F021F99A3
:1028800004981EF0D7FE04900F98C21031460498A9
:102890001EF0D0FE064605E00F98C21031461EF02D
:1028A000C9FE04900BEB080291B20AEB050290B24C
:1028B0001B4A536B32469847681C85B20398401CEC
:1028C000039009F101001FFA80F909988145AEDBF8
:1028D000089804440025A8F101001FFA80F8059823
:1028E000401C80B205900B99059888429CDB00BF84
:1028F00000BFBDF81C100298814201D10E9800B1B2
:1029000000E0DEE600BF10981EF00DF938461EF01C
:102910005FFC10981EF05CFC002052E6629E0020D6
:102920000012002000BFFEE710B50446FC2006F0B0
:1029300093F9054948710846407991F86810884232
:1029400001DD00F087FD10BDBC1500200A480B49D1
:102950000068038990F8702053430B8043895343E8
:102960004B8083895B1C53435B1E8B80C089401C5A
:102970005043401EC880704774140020E0140020AB
:1029800070B51E212248FDF736FC224890F86800F9
:10299000401C204981F8680091F86800FD2106F08C
:1029A000FDF8044634B91B48007920F002001949AB
:1029B000087170BD601E18491E2202FB00151748E1
:1029C0001349836F2846984715A100200FF038FF60
:1029D00012480A2216A1036916A098470A2001F09E
:1029E00009FF0E480A2212A1036913A098470B4859
:1029F0000A220FA1036910A098470848C16904483A
:102A0000884700200349A1F80F0000BFD1E700006C
:102A10009D470020BC15002000F007080012002090
:102A200043616C6C416C61726D696E670D0A0000E8
:102A30004F4B00004154480041542B434C564C3DF1
:102A40003000000010B50648D0F8E400054988427F
:102A500005D105480A2205A1036905A0984710BDC4
:102A6000BC15002018270020001200204F4B00004A
:102A70004154480010B503F03DF800F001F810BDD6
:102A800010B55148D0F8E4105048884701214F480C
:102A90008171022101710021C1710121017279212D
:102AA00041706FF07F41C0F81E10002141821E214D
:102AB00081824FF4A071C182F02101834449C0F8A2
:102AC0003A10C0F8361040484249D0F8D4203F4868
:102AD000904759203F4908704FF48860C1F80100C1
:102AE0000020A1F805001E213A48A0F807104FF475
:102AF000A071A0F809105021A0F80B1032483649F7
:102B0000D0F8C420314890478920334908703348B1
:102B100008620020C1F80B00022088610120487083
:102B20002F4848620A20A1F803006420A1F805009C
:102B3000C020C87424482B49D0F8C42023489047AB
:102B40008A2028490870284808620020C1F80B0034
:102B50000220886100204870214848627D20A1F849
:102B600003002B20A1F8050017481949D0F8E020F0
:102B7000164890471520164908808C204880192057
:102B800048820020888208204871012088716FF0F7
:102B90007F40C1F80A000020C1F80E000F48C8614C
:102BA000892008710020C882152008844FF4917193
:102BB000074881848C214184AA21C18400200449D2
:102BC00088610A48886210BD00120020CA260020D1
:102BD000A0490020D849002074490020B8220608E6
:102BE000382A0208484900202C46060854160020BE
:102BF00010B5084890F8640058B10648017A0720DB
:102C00000DF01AFB0020034981F8640002A10FF0C7
:102C100017FE10BDBC150020506F73744D657373A3
:102C20006167653A43616C6C0D0A000031B59DF82F
:102C30000040042C0ED1FD2006F00EF8064981F864
:102C40006700084690F8670091F86810884201DD37
:102C5000FFF796FE38BD0000BC15002070B5054694
:102C60001F4890F82D00401C1D4981F82D001D487B
:102C700001223B31D0F88C301B489847184890F817
:102C80002D00174991F83B10884227D1174800685A
:102C900020BB0020124981F82D0001201349086053
:102CA00000201349C1F8900101200D4988730021CB
:102CB000104814F02EFA002009490875A1F86000A8
:102CC000A1F8620000210C4814F023FA05480B4BD0
:102CD00045F208220121846E0C20A04770BD00003F
:102CE000BC150020001200201EF807088081214238
:102CF0000000214200080040000C00406D22000846
:102D000070B5002404F0A0FA0546FDF72BFCC4B210
:102D10002348007D002841D02248006800283DD18A
:102D20001C2C3BDC162C39DB1E480068B0BB1C4851
:102D3000B0F8600020441A49A1F860000846B0F8D5
:102D40006200401CA1F862000846B0F86200082842
:102D500024D10846B0F86000B1F8621090FBF1F0A1
:102D60000F49A1F860000020A1F862000846B0F801
:102D700060001C2812DC0846B0F8600017280DDB44
:102D80000020A1F86000002108200DF055FA002075
:102D9000034908750121044814F0BBF970BD000017
:102DA000BC150020808121420008004038B5FF2575
:102DB0005748D0F8E400D0F82E0000287DD05448C1
:102DC000D0F8E41000F21660814201D1284638BDE7
:102DD0004F48D0F8E400D0F82E00C078EF2807D094
:102DE0004B48D0F8E400D0F82E00C078BF2864D15A
:102DF0004748D0F8E400D0F82E0000790128F6D139
:102E00004349D1F8E410D1F82E10D1F83A0000214E
:102E10000AF0ECFA04460CB92846D8E700251BE076
:102E2000207A00903A48D0F8E41000F61850814219
:102E300008D0D4F80910086836490122CB6F6946DA
:102E4000984707E09DF800202846691CCDB230491C
:102E50002F310A54D4F81D40002CE1D1FE252E4814
:102E60000068C06A18B12C490968C86A80472848B8
:102E7000D0F8E41000F61850814202D1FF20054638
:102E8000A5E725480068406CB8B12148D0F8E400B7
:102E9000D0F82E0008B300201D49D1F8E410D1F875
:102EA0002E1081F831001A49D1F8E410D1F82E1013
:102EB00008721749D1F8E41000E026E0D1F82E108E
:102EC000C8751349D1F8E410D1F82E10887510494F
:102ED000D1F8E410D1F82E10087100200E490968CD
:102EE000C8700D49096808710B480068406C0A49B0
:102EF000086008460068017907480068083050F803
:102F000021000349C1F8E400002528465FE70000DE
:102F1000BC15002000120020280000202DE9F04FF1
:102F20008BB004460E4690469A46DDF850B02B21F1
:102F30006143FE4A02EB0111D1F82E0005F072FA4E
:102F40002B216143F94A02EB0111D1F8320005F05F
:102F500031FA2B206043F54901EB001080780028FE
:102F60007ED12B20604301EB0010C07D012878DD6D
:102F70002B20604301EB001082792B20604301EB92
:102F80000010007902FB0080C5B22B20604301EBEA
:102F90000010408C80B200902B20604301EB0010A9
:102FA00000794319E24852462946D0F830C03046ED
:102FB000E0472B216143DD4A02EB0111D1F82A00E1
:102FC00005F0EEF92B206043D84901EB001082791F
:102FD0002B2004FB00F1D54800EB0110007902FB27
:102FE0000080C5B22B206043D04901EB0010D0F81F
:102FF0002A00CDF811002B20604301EB001000F2F5
:1030000092202B216143C94A02EB0111C979405C2E
:1030100048B92B206043114601EB0010D0F8220084
:10302000CDF8150008E02B206043C04901EB0010EB
:10303000D0F82A00CDF8150006F10A0080B2ADF8EC
:10304000080005F10A00ADF80A002B206043B749DB
:1030500001EB00108089ADF80C002B20604301E0EB
:10306000BFE028E001EB0010C089ADF80E0002A817
:1030700002F04EFE2B216143AC4A02EB0111D1F864
:103080002A0005F08DF92B216143A84A02EB0111BA
:1030900036312B226243DFF894C20CEB0212D27954
:1030A00001EB82010868A24905F10A02D1F8143146
:1030B00006F1280198472B2060439C4901EB001042
:1030C000027E2B20604301EB0010007902FB0080A0
:1030D000C5B22B20604301EB0010B0F8190080B29C
:1030E00000902B20604301EB0010007943199048B9
:1030F00052462946D0F830C03046E0472B21614384
:103100008A4A02EB0111D1F81D0005F049F92B2084
:103110006043864901EB0010D0F81D00CDF8110086
:103120002B20604301EB001000F292202B21614321
:103130007E4A02EB011191F82110405C48B92B2026
:103140006043114601EB0010D0F81900CDF81500CE
:1031500008E02B206043754901EB0010D0F81D00FA
:10316000CDF8150006F10A0080B2ADF8080005F1AF
:103170000A00ADF80A002B2060436C4901EB0010F7
:103180008089ADF80C002B20604301EB0010C08952
:10319000ADF80E0002A802F0BBFD2B216143634A8B
:1031A00002EB0111D1F81D0005F0FAF82B20604365
:1031B0005E4901EB001036302B2161435B4A02EB84
:1031C000011191F8211000EB8100D0F800905848CF
:1031D00005F10A0206F12801D0F814314846984753
:1031E00006E12B206043514901EB00108078012853
:1031F000F6D10027F3E02B2060434C4901EB00108F
:10320000007EB84256D12B20604301EB0010027EB5
:103210002B20604301EB0010007902FB0080C5B257
:103220002B20604301EB0010B0F8190080B2009031
:103230002B20604301EB0010007943193C485246B3
:103240002946D0F830C03046E0472B216143374A49
:1032500002EB0111D1F81D0005F0A2F82B2060430C
:10326000324901EB0010D0F81D00CDF811002B20E1
:10327000604301EB001101F292212B2060432B4AA5
:1032800002EB0010807D3844085C48B92B20604375
:10329000114601EB0010D0F81900CDF815005FE0E1
:1032A0002B206043214901EB0010D0F81D00CDF820
:1032B000150055E02B2060431C4901EB00100079FC
:1032C00007FB0080C5B22B20604301EB0010408C4F
:1032D00080B200902B20604301EB0010007943196D
:1032E000134852462946D0F830C03046E0472B21DB
:1032F00061430E4A02EB0111D1F82A0005F050F8A3
:103300002B206043094901EB0010D0F82A00CDF8CA
:1033100011002B20604301EB001000F292202B21C2
:103320006143024A02EB0111897D03E0FE95002012
:10333000001200203944405C48B92B2060431146FC
:1033400001EB0010D0F82200CDF8150008E02B208A
:103350006043294901EB0010D0F82A00CDF8150090
:1033600006F10A0080B2ADF8080005F10A00ADF8D8
:103370000A002B206043204901EB00108089ADF842
:103380000C002B20604301EB0010C089ADF80E004B
:1033900002A802F0BDFC2B206043174901EB00108E
:1033A00036302B216143144A02EB0111897D3944E7
:1033B00000EB8100D0F80090104805F10A0206F1F8
:1033C0002801D0F81431484698472B2060430A4919
:1033D00001EB001000792844C5B2781CC7B22B203D
:1033E0006043054901EB0010007DB8423FF703AF91
:1033F0000BB0BDE8F08F0000FE9500200012002009
:103400000021012801D1092102E0022800D1072171
:103410007047000010B50848807958B10648017A15
:103420000B200CF009FF00210348817103A100204B
:103430000FF006FA10BD0000BC150020506F737429
:103440004D6573736167653A43616C6C4369640DE4
:103450000A00000070B5264890F86800401C244916
:1034600081F8680091F86800FC2105F097FB04469C
:1034700004B970BD1E48007920F00100401C1C49B1
:1034800008710846007920F002000871601E194991
:103490001E2202FB001518481849836F28469847DA
:1034A00017480068A0B1012016490860002016499D
:1034B000C1F890011048D0F8A010104888470E4875
:1034C000124B45F208220121866E0C20B0470CE019
:1034D00009480A220EA103690EA098470A2001F0AC
:1034E00089F90548C1690548884700BFC1E7000060
:1034F000BC15002000F00708001200209D470020A6
:103500001401224280812142000021426D220008E4
:103510004F4B00004154480010B5002240F22551A5
:10352000034815F08BFB0021014815F0F9FA10BD96
:10353000004400402DE9F0414B48D0F8E41000F57C
:10354000656081427ED149480068476C7F6C47487E
:103550000068017907F1080050F82160D6F82E3094
:1035600093F83110D3F83A00414BD3F80421904737
:1035700005463D48D0F8E400D0F8264067E0E07CFE
:10358000FA2805D1D5F8090000681030C4F80F00FA
:10359000E07CF82830D1D5F8090000683549884228
:1035A0000DD8D5F8090000683349884207D3606A0E
:1035B00032A11BF0FBFDFD202B4908731CE0D5F860
:1035C000090000683349884216D8D5F80900006818
:1035D0002849803188420FD32FA137481BF0E6FDE0
:1035E0003548FCF725FE8046606A42463249FCF7C2
:1035F000DBFDFE201C490873D5F8090000681D4951
:1036000088420DD8D5F8090000681B49884207D3C5
:10361000E07CF9281AD11F483830C4F80F0015E0B3
:10362000D5F8090000681B4988420FD8D5F8090071
:10363000006810498031884208D3E07CF92805D120
:103640000D4800E005E03C38C4F80F00A46A002CE7
:1036500095D10121194813F05CFD012002494872FF
:103660008872BDE8F0810000BC1500202800002011
:10367000001200205CFC070818FA0708506C65610E
:103680007365207472696767657220446574656349
:10369000746F720068FD0708506C65617365205097
:1036A0007265737320416E79204B6579206F6E20AF
:1036B00052656D6F746500001042002000140040D8
:1036C0002DE9F84305460E461746A84600241AE0A1
:1036D00005EB84080E4803226946D0F88C3040463A
:1036E00098479DF800003178884208D19DF8010084
:1036F0007178884203D1601CC0B2BDE8F883002015
:103700000090601C84B2BC42E2DB0020F5E70000C0
:10371000001200202DE9F84305460E461746A8463C
:1037200000241AE005EB84080E4803226946D0F80D
:103730008C30404698479DF800003178884208D187
:103740009DF801007178884203D1601CC0B2BDE8C9
:10375000F88300200090601C84B2BC42E2DB0020B1
:10376000F5E700000012002010B5CA48D0F8E410B8
:10377000C9488847C949C848C0F84A10C0F8461027
:1037800001218171032181700221017101210172E6
:10379000312141706FF07F41C0F81E10002141823D
:1037A0001E2181824FF4A071C182F0210183BC49A6
:1037B000C0F83A10C0F8361000240CE004EB840086
:1037C00000EBC400B54BC118B248D0F8FC20B24899
:1037D0009047601CC4B2042CF0DB0A20AF4908708B
:1037E000AF48C1F8010001F12700C1F805001A38FF
:1037F000C1F809000C204873AA49A848C0F80E1067
:103800000146C0F812101A30C1F816000C20887654
:10381000A4483630C1F81B0001F10D00C1F81F00AB
:103820001A30C1F823000C2081F827009D486C3025
:10383000886201F11A00C8621A3801630024A4E00A
:1038400004EBC40000EB4000964B03EB40019148B1
:10385000D0F8F82090489047601C04EBC40101EBBD
:103860004101904A02F811001E2004EBC40101EB53
:10387000410102EB4101A1F801003C2004EBC4012D
:1038800001EB410102EB4101A1F80500C4EB04107A
:103890008C2101EB400004EBC40101EB410102EB80
:1038A0004101A1F80700002004EBC40101EB410134
:1038B00002EB4101C1F80F006FF07F4004EBC4013F
:1038C00001EB410102EB4101C1F80B00764804EB2A
:1038D000C40101EB410102EB4101C1F817000220D4
:1038E00004EBC40101EB410102EB4101C1F81300FB
:1038F0004FF47F0004EBC40101EB410102EB4101F5
:103900008862FF2004EBC40101EB410102EB41019D
:10391000C862601C04EBC40101EB410102EB4101F0
:1039200081F83000C4EB04108C2101EB400004EB63
:10393000C40101EB410102EB4101A1F80300122097
:1039400004EBC40101EB410102EB4101487257480D
:1039500000EB840004EBC40101EB410102EB4101E7
:10396000C1F81F0004EBC40000EB4000114601EB5E
:10397000400084724E4804EBC40101EB410102EBAC
:103980004101C1F81B00601CC4B2032CFFF658AF04
:1039900040484349D0F8E0203F489047A0204049A4
:1039A00008805A20488004200872488200208882BB
:1039B000082048714FF47F00C1F80A00FF20C1F8C9
:1039C0000E003C48C861092008710020C882A02070
:1039D0000884C821324881845A2141846E21C184DF
:1039E00035482F498862354888612A483449D0F8DB
:1039F000D420294890471320314908704FF488603B
:103A0000C1F801000020A1F805001E212C48A0F8F3
:103A100007104FF4A071A0F809105021A0F80B1066
:103A20001C482849D0F8C4201B489047412025490C
:103A30000870254808620020C1F80B000220886148
:103A4000002048701A48001F48626920A1F803004E
:103A50002D20A1F805000F481C49D0F8C4200E48BD
:103A600090473120194908700F4808620020C1F8BA
:103A70000B0002208861C020C874042048700C48E4
:103A8000001F48621E20A1F803005A20A1F805007B
:103A900010BD0000001200206627002078300020B2
:103AA0009E2F0020D62F0020B8220608802402086E
:103AB000A82302088832060854160020C6FD07080D
:103AC000352F0020462F00202C460608722F00209C
:103AD00070B51048D0F8E4000F49884219D10D485C
:103AE000D0F8E400D0F84600D0F8094000260EE0F7
:103AF000D4F80150D5F81F100868084901228B6FCF
:103B000005F131019847D4F80940701CC6B2032E64
:103B1000EEDB70BDBC1500206627002000120020DF
:103B200070B51048D0F8E4000F49884219D10D480B
:103B3000D0F8E400D0F84A40D4F8094000260EE05E
:103B4000D4F80150D5F81F10086808490122CB6F3E
:103B500005F131019847D4F80940701CC6B2032E14
:103B6000EEDB70BDBC15002066270020001200208F
:103B70001049D1F8E410104A91421AD10D49D1F8F8
:103B8000E410D1F8461009780C2912D10949D1F86E
:103B9000E410D1F84610D1F8010090F8311009B9BD
:103BA000012100E00021273081720178491C00F8D2
:103BB00027197047BC150020662700207FB5384CB8
:103BC0003848D0F8E410384888470021374880F852
:103BD0004A1B80F8481B012180F84B1B392180F8D3
:103BE000451B4AF2FF51C0F8621B4621A0F8561B44
:103BF0005021A0F8581BFA21A0F85A1BC821A0F8A0
:103C00005C1B28482A49D0F8C82027489047322012
:103C10002749A1F809006E20A1F80B004FF4877026
:103C2000A1F80D00C820A1F80F000A20A1F811008A
:103C30000F20A1F81300002008720320487500200F
:103C400081F83100887508760220C1F821006FF0F4
:103C50007F40C1F819000020C1F81D004FF6601028
:103C6000C1F829006FF07F40C1F82D001F20C1F876
:103C700036001048C1F825003620C871DF20C87012
:103C80000320002100910191CDE9021005480B4667
:103C9000032204F10C01D0F8D0500548A8477FBD9D
:103CA000142602080012002000210020BC1500206C
:103CB0000E3C0020B82206087FB5534C5348D0F87C
:103CC000E410534888470121524880F8121A80F8BE
:103CD000101A80F8131A252180F80D1A6FF07F4111
:103CE000C0F82A1A0021A0F81E1A1E21A0F8201AD6
:103CF0004FF4A071A0F8221AF021A0F8241A43482A
:103D00004549D0F8D42042489047012042490870E4
:103D10004FF48860C1F801000020A1F805001E21C1
:103D20003D48A0F807104FF4A071A0F809105021E9
:103D3000A0F80B1035483949D0F8C42034489047D2
:103D4000312036490870364808620020C1F80B005F
:103D50000220886100204870FC20C874002048625E
:103D60007820A1F803002B20A1F8050027482D4951
:103D7000D0F8C8202648904700202A49A1F8090019
:103D80005020A1F80B008000A1F80D00F020A1F850
:103D90000F000F20A1F81100A1F8130003204871B3
:103DA000282088710020087203204875002081F8BF
:103DB0003100887508760220C1F821006FF07F403D
:103DC000C1F819000020C1F81D004FF66010C1F8BD
:103DD00029006FF07F40C1F82D001348C1F825007D
:103DE0000120C871DF20C8700320002100910191DB
:103DF000CDE9021005480B4603222146D0F8D050E9
:103E00000848A8477FBD00001426020800120020C1
:103E1000C81F0020BC1500209B3A00206F3A0020EC
:103E20002C460608AC3A0020B82206081FB55348B5
:103E3000D0F8E410524888470121524880F84814CD
:103E400080F8461480F849142E2180F843146FF04E
:103E50007F41C0F860140021A0F854141E21A0F87E
:103E600056144FF4A071A0F85814F021A0F85A1479
:103E700042484549D0F8D42041489047052042495E
:103E800008704FF48860C1F801000020A1F8050017
:103E90001E213D48A0F807104FF4A071A0F80910AA
:103EA0005021A0F80B1035483849D0F8C4203448C8
:103EB0009047312035490870354808620020C1F824
:103EC0000B000220886100204870C87431484862A5
:103ED0007320A1F803002B20A1F8050027482E49E4
:103EE000D0F8C8202648904700202B49A1F80900A7
:103EF0005020A1F80B008000A1F80D00F020A1F8DF
:103F00000F000F20A1F81100A1F813000320487141
:103F1000282088710020087204204875002081F84C
:103F20003100887508760220C1F821006FF07F40CB
:103F3000C1F819000020C1F81D004FF66010C1F84B
:103F400029006FF07F40C1F82D001448C1F825000A
:103F50000120C871FF20C87001201149114A124B7D
:103F6000CDE90032CDE902100448002308221946A9
:103F7000D0F8D0400848A0471FBD00000012002024
:103F8000FE190020BC150020F0390020013A002065
:103F90002C460608FC2502082D3A0020B822060807
:103FA000B87705087C2602089C2602081FB55348EE
:103FB000534908605348D0F8E4105348884701211A
:103FC000524880F8FC1A80F8FA1A80F8FD1A23216A
:103FD00080F8F71A6FF07F41C0F8141B0021A0F899
:103FE000081B1E21A0F80A1B4FF4A071A0F80C1B9F
:103FF000D221A0F80E1B43484549D0F8D4204248AE
:1040000090470120424908704FF48860C1F80100D0
:104010000020A1F805001E213D48A0F807104FF42C
:10402000A071A0F809105021A0F80B1035483949AB
:10403000D0F8C420344890473120364908703648BB
:1040400008620020C1F80B0002208861012048703E
:104050002A48183848627820A1F803002B20A1F8DC
:10406000050028482D49D0F8C8202748904700204F
:104070002A49A1F809005020A1F80B008000A1F8FE
:104080000D00D220A1F80F000F20A1F81100A1F817
:104090001300002008722820887103204875002032
:1040A00081F83100887508760220C1F821006FF090
:1040B0007F40C1F819000020C1F81D004FF66010C4
:1040C000C1F829006FF07F40C1F82D001448C1F8F5
:1040D00025005620C871EF20C870032000210091F0
:1040E0000191CDE9021007480E4B0322D0F8D040D1
:1040F000034801680948A0471FBD00002C2602089C
:10410000EC00002000120020B2200020BC1500208E
:10411000BB3B00208F3B00202C460608CC3B0020F8
:10412000B8220608E400002010B5FFF77FFEFFF775
:10413000C3FDFCF763FFFFF739FFFFF73FFD10BD3D
:1041400070B504460449204606F0AAFF05462946F4
:10415000024807F02BF870BDB4600020386D0020D5
:1041600070B504460449204606F09AFF05462946E4
:10417000024807F01BF870BD346D0020446D00202C
:1041800010B54FF4005000F039F84FF4004000F043
:1041900035F80021054800F03FF803200349443971
:1041A00088640121014800F037F810BD4400024046
:1041B00010B54FF4001000F021F84FF4000000F0AB
:1041C0001DF80021054800F027F8642003496C39E8
:1041D00008670121014800F01FF810BD6C00024083
:1041E00000F0805111B10349086001E002494860C4
:1041F00070470000040402400000024000F08051BB
:1042000011B10349086001E00249486070470000AD
:10421000040402400000024021B1026842F00102A1
:10422000026004E002684FF6FE731A4002607047B5
:1042300001684FF6FE72114001600021016041608B
:104240008160C1604B49884208D14A4908394968B0
:1042500041F00F01474A083A51608AE0454914315C
:10426000884208D143490839496841F0F001414A80
:10427000083A51607DE03F492831884208D13D49E4
:104280000839496841F470613A4A083A516070E06F
:1042900038493C31884208D136490839496841F4E7
:1042A0007041344A083A516063E0324950318842E3
:1042B00008D130490839496841F470212D4A083A3B
:1042C000516056E02B496431884208D129490839A8
:1042D000496841F47001274A083A516049E025498C
:1042E0007831884208D123490839496841F0706122
:1042F000204A083A51603CE01F49884206D1011F1C
:10430000096841F00F01021F116032E01A491431AF
:10431000884208D11849091F096841F0F001164A7E
:10432000121F116025E014492831884208D1124932
:10433000091F096841F470610F4A121F116018E0EB
:104340000D493C31884208D10B49091F096841F4E5
:104350007041094A121F11600BE007495031884231
:1043600007D10549091F096841F47021024A121F4B
:104370001160704708000240080402401AB1036847
:104380000B43036002E003688B430360704710B582
:104390000022026847F6F0739A430C6A8B68234345
:1043A0000C6923434C6923438C692343CC69234321
:1043B0004C6A23438C6A23431A430260CB684360F0
:1043C0000B6883604B68C36010BD41607047FF207D
:1043D000704710B5FF24FFF7FAFF0446FF2C03D007
:1043E000214605200BF028FF10BD000000B58BB062
:1043F000202101A8FBF7FFFE1548D0F8E41000F2D9
:10440000B260814222D1124890F8C6008DF82A008D
:104410000F4890F8C5008DF829000D4890F8C400A9
:104420008DF828000A4890F8C3008DF82700084846
:1044300090F8C2008DF826000548B0F8C000ADF82D
:1044400024000448D0F8981009A888470BB000BD94
:10445000BC150020001200200549D1F8E420E83105
:104460008A4204D103498978014A82F8C61070470C
:10447000BC150020F013002008B5012104200CF029
:10448000CDF84FF48060ADF8000004208DF80300F3
:1044900003208DF802006946014802F0B0FF08BD14
:1044A000000801407047000008B5FD200090434817
:1044B000066843480A2243A1036943A0984740483D
:1044C0000A2240A1036942A098473C48046804F0CE
:1044D000D7FD3A480068051B2A463FA100200EF090
:1044E000AFF9404890F82F0001280BD133480468F9
:1044F0000DF084FB31480068051B2A463AA10020D4
:104500000EF09EF9374890F8300001280BD12B4867
:10451000046817F06BFD29480068051B2A4636A180
:1045200000200EF08DF92F4890F8310001280BD1B2
:10453000224804680BF054FD20480068051B2A46F9
:1045400031A100200EF07CF9264890F832000128B5
:104550000BD11A48046812F007FA18480068051BC6
:104560002A462DA100200EF06BF91448046808F0CB
:10457000E3FF12480068051B2A462AA100200EF01E
:104580005FF90E480468FDF7F5FA0C480068051B52
:104590002A4627A100200EF053F908480068851B21
:1045A0002A4626A100200EF04BF905480122694653
:1045B000C36F2648984712F0DBFA0000A8130020CA
:1045C000001200204F4B0000415453303D31000099
:1045D000415426570000000047534D3A25646D733F
:1045E0000D0A0000BC15002072656D6F74653A25D8
:1045F000646D730D0A00000073656E736F72733A19
:1046000025646D730D0A000070686F6E653A25644D
:104610006D730D0A00000000706172613A25646DCF
:10462000730D0A006C6F673A25646D730D0A000004
:104630006175746F3A25646D730D0A00746F746C44
:10464000653A25646D730D0A0000000014F8070830
:1046500010B50448044B64220021846E0220A04758
:1046600010BD000000120020A944000800BF011E78
:10467000A0F10100FBD1704708B5124890F8330053
:104680000423012210490090104809F0B5FF0420CE
:104690000C490872084690F8660018B1012081F8AC
:1046A000650007E0074890F8670018B10120054948
:1046B00081F8640006480349C1F8E40010F016FED2
:1046C00008BD0000BC150020BAFD070800E007087F
:1046D000442500201FB500200290012003900020F7
:1046E0003449C8743448012203A9D0F890303348C3
:1046F00098479DF80C002F4908722F48012202A903
:10470000836F2F489847FF2000902A4890F85D203B
:1047100003232C492C4809F06FFF9DF8080060B175
:10472000244890F8660040B12348284B4FF47A7231
:104730000021846E0520A0470FE0002002901E4853
:10474000012202A9836F1F48001D98479DF80800A9
:1047500018B10120174981F864001748C16E0E2076
:1047600088471548012201A9836F194898479DF889
:104770000400F0B10F4890F85D0002280CD10D48FC
:10478000407B012808D10C48124B4FF4FA620121FA
:10479000846E0E20A0470CE0064890F85D000128CA
:1047A00007D105480B4B4FF4FA620121846E0E20AD
:1047B000A0471FBDBC15002000120020DEF907082D
:1047C0009EFC0708BCFD0708C0E30708491900085C
:1047D00028F80708ED36010810B50446002C04DD62
:1047E0000248846002480EF03BFD10BD386D002089
:1047F000446D002000B5034603E04FF4FA50FFF784
:1048000035FF181EA3F10103F7D100BD70B58CB0C0
:1048100005460C460026641C20780B909DF82C0061
:10482000312802D032282DD115E0641C20780D28C3
:104830000CD02046FBF70CFDC0B20B9020480122A3
:104840000BA9C36F1F489847012603E020780D2865
:1048500000D1012616E0641C20780D280DD02046DA
:10486000FBF7F6FCC0B20B90154801220BA9C36FF1
:104870001448801E9847012603E020780D2800D1B7
:10488000012600BF00BFCEB10D48012201A9836FF0
:104890000C48801E98470A48012202A9836F0948E4
:1048A00098479DF808309DF8042007A103A81AF046
:1048B0007DFC034803A98269284690470CB070BD6F
:1048C000001200201AF8070841726D2064656C61BF
:1048D000792873293A252E31640A416C61726D2062
:1048E00064656C61792873293A252E3164000000D3
:1048F00000B5034602E00820FFF7B8FE181EA3F13A
:104900000103F8D100BD000010B5D048D0F8E41084
:10491000CF4888470321CF4880F8CE15052180F87D
:10492000CC15022180F8D015352180F8C9156FF01B
:104930007F41C0F8E6150021A0F8DA151E21A0F885
:10494000DC154FF4A071A0F8DE15F021A0F8E015F9
:10495000C149C0F80216C0F8FE150846BF494863B1
:104960000846BD494863B948BD49D0F8D420B84885
:1049700090470520BA4908704FF48860C1F80100DB
:104980000020A1F805001E21B548A0F807104FF43B
:10499000A071A0F809105021A0F80B1001243EE0EE
:1049A00004EB0410AE4BC118A848D0F8D420A84896
:1049B0009047A01D04EB0411A94A5054A94804EBE8
:1049C00004111144C1F80100032004EB0411114447
:1049D000A1F80500601E00EBC00101EB00108C2166
:1049E00001EB400001B204EB04101044A0F80710E2
:1049F00040F23D1104EB04101044A0F80910601EB1
:104A000000EBC00101EB00108C2101EB400001B272
:104A100004EB04101044A0F80B10601CC4B2032C6B
:104A2000BEDB8A489049D0F8C420894890473B2093
:104A30008D4908708D4808620020C1F80B000220E3
:104A40008861002048708A4848628220A1F80300EB
:104A50002D20A1F805007D488649D0F8C4207C4867
:104A600090473B2083490870834808628348C1F817
:104A70000B0002208861C020C874012048707C4867
:104A800048620A20A1F803007320A1F805006F48CE
:104A90007B49D0F8C4206E4890473B207849087085
:104AA000754808627548C1F80B0002208861C02073
:104AB000C874022048706E4848620A20A1F80300BA
:104AC000A520A1F8050000245FE004EB440000EB02
:104AD000C4006C4B03EB80015C48D0F8C4205C48F8
:104AE000904704F13B0004EB440101EBC401654A2B
:104AF00002F82100644804EB440101EBC40102EB1D
:104B000081010862614804EB440101EBC40102EB3E
:104B10008101C1F80B00022004EB440101EBC40148
:104B200002EB81018861C02004EB440101EBC40168
:104B300002EB8101C874042004EB440101EBC401C1
:104B400002EB810148704A4804EB440101EBC401C7
:104B500002EB81014862FA2004EB440101EBC4013D
:104B600002EB8101A1F8030004EBC40000EB041088
:104B7000782101EB400004EB440101EBC40102EB9E
:104B80008101A1F80500601CC4B2022C9DDB2F48F6
:104B90003149D0F8E0202E489047C4202E490880A3
:104BA00074204880FF2048820020888248712D4868
:104BB000C1F80A00FF20C1F80E002F48C86101208B
:104BC00008710020C882C4200884F521224881840D
:104BD000742141848821C1841E4837301E4988626F
:104BE0002B488861194801221A493731836F2848B8
:104BF000984716481949D0F8E02015489047C42036
:104C000016490880A6204880FF204882002088821C
:104C100048711448C1F80A00FF20C1F80E00164878
:104C2000C86102200871C882C4200884F5210B489D
:104C30008184A6214184BA21C1841548801C07497A
:104C4000886104483830886210BD000000120020DE
:104C5000841B0020BC150020ED2A0020252B0020FD
:104C6000DE290020D3D3D300112A00202C460608C9
:104C70009C2202083D2A002088320608A52A2A0024
:104C8000692A0020952A00207CFC0508808080008D
:104C900018F8070830B589B0002000902B48012291
:104CA0006946C36F2A4898470120009026E0BDF866
:104CB0000000401E00EB8000264901EB8005FF222A
:104CC000142104A8FBF790FABDF8002022A104A843
:104CD0001AF06CFA37208DF81C0031208DF81E0078
:104CE00000208DF820001948142204A9C36F28461B
:104CF0009847BDF80000401C80B20090BDF800004D
:104D00001F28D4DB4FF4967000F0A0FE044600206C
:104D1000009015E00020019002900390BDF8000083
:104D200000EB80000F4901EB40050848062201A96D
:104D3000C36F28469847BDF80000401C80B2009021
:104D4000BDF80000A042E5DB09B030BD0012002034
:104D5000A0FD070818FA07085A6F6E6520252E3245
:104D60006400000000D007082DE9F04186B07F48BC
:104D7000D0F8E400D0F82E0090F8310005907B4880
:104D8000D0F8E41000F63A7081427DD19DF814000D
:104D900000287AD17549D1F8E410D1F82E1081F8A5
:104DA00031007249D1F8E410D1F82E1008726F4921
:104DB000D1F8E410D1F82E10C8756C49D1F8E41080
:104DC000D1F82E1088756A480068456C68480068FC
:104DD000017905F1080050F82140002054F82E1FF9
:104DE00081F83100216808722168C87554F82E19BD
:104DF00088755F480068456C5D480068017905F179
:104E0000080050F82140002054F82E1F81F831008E
:104E1000216808722168C87554F82E1988756D6C60
:104E200053480068017905F1080050F8214054F812
:104E30002E3F93F831102368D3F83A004D4BD3F846
:104E4000042190478046D8F8090007681421684675
:104E5000FBF7D1F9206890F83100421C46A1684662
:104E60001AF0A4F937208DF80C0031208DF80E00CF
:104E700000208DF810003F4808226946C36F38466D
:104E8000984754F82E1901E01BE01BE091F831100F
:104E9000491CC8B23B4900F0FDFBC6B2002E62D0EF
:104EA0003448012205A9836F374898479DF81400BC
:104EB000801BC0B205902F48012205A9C36F32485C
:104EC000984750E09DF81400012832D1FFF7E2FE28
:104ED00000202649D1F8E410D1F82E1081F83100D5
:104EE0002249D1F8E410D1F82E1008721F49D1F8E8
:104EF000E410D1F82E10C8751C49D1F8E410D1F88F
:104F00002E1088751A480068456C194800680179A8
:104F100005F1080050F82140002054F82E1F81F8B8
:104F20003100216808722168C87554F82E198875F7
:104F300019E000200D49D1F8E410D1F82E1081F8C5
:104F400031000A49D1F8E410D1F82E10087207494F
:104F5000D1F8E410D1F82E10C8750449D1F8E41046
:104F6000D1F82E10887506B0BDE8F081BC15002080
:104F700028000020001200205A6F6E6520252E3276
:104F80006400000000D00708A0FD07082DE9F041EB
:104F900086B00646002732201CF0B2FA07460124EC
:104FA0002EE0601E00EB80002A4901EB8008FF2202
:104FB000142101A8FBF718F9224627A101A81AF02D
:104FC000F5F800208DF8160032208DF815002548E0
:104FD000142201A9C36F40469847601E00EB800071
:104FE000214901EB8008FF22142101A8FBF7FCF8FE
:104FF0001C48142201A9C36F40469847601CC4B2E4
:10500000092CCEDB01241AE0601E00EB8000114960
:1050100001EB80051348142201A9836F28469847A5
:105020009DF81500322808D010A70E48394682692D
:105030003046904706B0BDE8F081601CC4B2092C30
:10504000E2DB10A70748394682693046904700BF27
:10505000F0E70000DCFC070852656D6F7465252ED3
:105060003164000000120020EEF8070844656C650A
:1050700074652072656D6F7465206661696C656426
:105080000000000044656C6574652072656D6F7486
:1050900065207375636365737366756C6C79000066
:1050A0002DE9F0478EB08D48D0F8E400D0F82E00FE
:1050B00090F831908948D0F8E41000F644308142ED
:1050C00036D1B9F1010F34D18549D1F84C0180476F
:1050D00000208249D1F8E410D1F82E1081F8310077
:1050E0007E49D1F8E410D1F82E1008727B49D1F82E
:1050F000E410D1F82E10C8757849D1F8E410D1F831
:105100002E10887577480068456C764800680179EC
:1051100005F1080050F82140002054F82E1F81F8B6
:105120003100216808722168C87554F82E198875F5
:10513000D0E0B9F1000F7CD100206849D1F8E4102B
:10514000D1F82E1081F831006449D1F8E410D1F87B
:105150002E1008726149D1F8E410D1F82E10C875EC
:105160005E49D1F8E410D1F82E1088755D480068CA
:10517000456C5C480068017905F1080050F8214051
:10518000002054F82E1F81F8310021680872216830
:10519000C87554F82E19887552480068456C5148F6
:1051A0000068017905F1080050F82140002054F80A
:1051B0002E1F81F83100216808722168C87554F8E3
:1051C0002E1988756D6C47480068017905F1080053
:1051D00050F8214054F82E2F92F831102268D2F85E
:1051E0003A0008F003F98046D8F80D000668D8F8B0
:1051F00011000768202106A8FAF7FDFF206890F843
:105200003100421C38A106A819F0D0FF01208DF80A
:10521000340006A8FBF70CF81FFA80FA3048524613
:1052200006A9C36F384698472D4801220DA9C36FC0
:1052300000E035E007F11C009847142101A8FAF7B7
:10524000DAFF2748142201A9836F06F1140098475A
:10525000142101A8FAF7CFFF54F82E0990F8310075
:10526000421C25A101A819F0A1FF1D480A2201A98D
:10527000C36F3046984701208DF812008DF810005A
:105280001748012204A9C36F06F10C00984714487F
:1052900001220DF11201C36F06F10E00984719E0CB
:1052A00000200E49D1F8E410D1F82E1081F8310019
:1052B0000A49D1F8E410D1F82E1008720749D1F844
:1052C000E410D1F82E10C8750449D1F8E410D1F8D3
:1052D0002E1088750EB0BDE8F0870000BC150020C8
:1052E00000120020280000204E4F2E253164202877
:1052F000456D7074792900004E756D626572252EBA
:105300003164000070B55848D0F8E400D0F8360099
:1053100000286ED05448D0F8E41000F26460814256
:1053200005D05148D0F8E4005049884208D14E4891
:10533000D0F8E400D0F8460000780A2800D070BD0C
:105340004948D0F8E400D0F83600467926B1042E5A
:105350001ED0082E71D12EE04348D0F8E400D0F8DA
:105360003600806A04784048D0F8E400D0F836006F
:10537000858A0A2094FBF0F084B2AC4200DC2C4613
:105380003949D1F8E410D1F83610896A0C7054E02C
:105390003548D0F8E400D0F83600806A04880A2046
:1053A00094FBF0F084B23048D0F8E400D0F8360036
:1053B000806A048000BF2C48D0F8E400D0F83600A2
:1053C000447ABCB92849D1F8E410D1F83610886A7B
:1053D0001E21FAF710FF2448D0F8E400D0F8360078
:1053E0000079C0432049D1F8E410D1F83610087193
:1053F00023E037E0601E84B24CB91B49D1F8E410B9
:10540000D1F83610886A1E21FAF7F5FE07E0002071
:105410001549D1F8E410D1F83610896A08551248B8
:10542000D0F8E400D0F836000079C0430E49D1F836
:10543000E410D1F83610087100BF00BF0A48D0F858
:10544000E400D0F83600407A60B10748D0F8E400B4
:10545000D0F83600407A401E0349D1F8E410D1F864
:105460003610487200BF6AE7BC150020662700208E
:105470002DE9F04387B0012000907F48D0F8E40088
:10548000D0F82E0090F831707B48D0F8E41000F688
:10549000EC60814235D1012F34D17849D1F85001E7
:1054A000804700207449D1F8E410D1F82E1081F81B
:1054B00031007149D1F8E410D1F82E1008726E490C
:1054C000D1F8E410D1F82E10C8756B49D1F8E4106A
:1054D000D1F82E1088756A480068456C68480068E5
:1054E000017905F1080050F82140002054F82E1FE2
:1054F00081F83100216808722168C87554F82E19A6
:105500008875B5E0002F7DD100205B49D1F8E4100B
:10551000D1F82E1081F831005749D1F8E410D1F8B4
:105520002E1008725449D1F8E410D1F82E10C87525
:105530005149D1F8E410D1F82E1088755048006810
:10554000456C4F480068017905F1080050F821408A
:10555000002054F82E1F81F831002168087221685C
:10556000C87554F82E19887545480068456C44483C
:105570000068017905F1080050F82140002054F836
:105580002E1F81F83100216808722168C87554F80F
:105590002E1988756D6C3A480068017905F108008C
:1055A00050F8214054F82E3F93F831102368D3F877
:1055B0003A00324BD3F8042190470646D6F809004A
:1055C000D0F80080D6F80D00D0F8009000200690AA
:1055D0002A48022206A9C36F48469847142101A809
:1055E000FAF709FE54F82E0990F83100421C25A163
:1055F00001A819F0DBFD01208DF8100032208DF894
:10560000120000E01AE01D480A2201A9C36F4046BB
:1056100098471A4801226946836F1D4898479DF8AC
:10562000000020B19DF80000401EC0B20090134859
:1056300001226946C36F1648984719E000200E49B9
:10564000D1F8E410D1F82E1081F831000A49D1F8D0
:10565000E410D1F82E1008720749D1F8E410D1F8FF
:105660002E10C8750449D1F8E410D1F82E108875B1
:1056700007B0BDE8F0830000BC1500200012002038
:105680002800002052656D6F7465253164000000AC
:10569000DCF907082DE9F84306460D460027A84621
:1056A00000241AE005EB84080F4804226946D0F86C
:1056B0008C30404698479DF80300B04209D1781CD1
:1056C00087B200200090084802226946C36F404616
:1056D000984700200090601C84B2B4F5967FE1DB0F
:1056E0003846BDE8F883000000120020F8B50546F2
:1056F000002418E00E4800EB8406002000900D48BE
:1057000004226946D0F88C30304698479DF8020054
:1057100038B99DF8010020B99DF8000008B930465D
:10572000F8BD601C84B2AC42E4DB0020F8E7000066
:1057300000D00708001200207FB5394C3948D0F856
:10574000E410394888470021384880F8401F80F825
:105750003E1F012180F8411F392180F83B1F4AF28A
:10576000FF51C0F8581F3221A0F84C1F5021A0F85B
:105770004E1F4FF48C71A0F8501FC821A0F8521F83
:1057800028482B49D0F8C82027489047322028497C
:10579000A1F809006E20A1F80B004FF48770A1F862
:1057A0000D00C820A1F80F000A20A1F811000F2059
:1057B000A1F813000020087203204875002081F82A
:1057C0003100887508760220C1F821006FF07F4013
:1057D000C1F819000020C1F81D004FF66010C1F893
:1057E00029006FF07F40C1F82D001F20C1F836005E
:1057F0001048C1F825005620C871DF20C87003206A
:10580000002100910191CDE9021006480B460322C8
:1058100004F14801D0F8D0500548A8477FBD0000EA
:105820002C27020800120020F6240020BC150020BE
:105830001B430020B82206082DE9F04F8DB0074623
:105840000C4600200C90052F79D14FF4967221461A
:105850007348FDF735FF05462DB37248D0F8E400D4
:10586000D0F8266015E0F07CF82811D1202104A89A
:10587000FAF7C1FC2A466CA104A819F097FC04A809
:10588000FAF7D6FC0190706A04A9019AFAF78CFC29
:10589000B66A002EE7D1FE206249D1F8E4104872C2
:1058A0000DB0BDE8F08F4FF496715D4803F02CF910
:1058B0000C9003F047FA834610F036F8D0F80090C9
:1058C0004FF49670FFF712FF8046B8F1000F34D006
:1058D00020788DF8080060788DF80900A0788DF8A0
:1058E0000A008DF80BB05648022202A9C36F404649
:1058F000984709F11009524801220CA9836F4846C4
:1059000098479DF83000401CC0B20C904C480122D2
:105910000CA9C36F484698474FF49671404803F06E
:10592000F3F80C90464801220CA9C36F45489847EC
:10593000FE203C49D1F8E41048726FE0FFE74FF4D5
:10594000967221463648FDF7BBFE054605B9A7E726
:105950003B49D1F858018047A078072802D0A078A9
:105960000E2818D1681E00EB80002D4901EB40087D
:105970003348062202A9836F404698479DF80B00E2
:10598000E0702F4802222146C36F40469847A07816
:10599000072800D184E7072F3FD2DFE807F03E3128
:1059A0000435393E3D00681E00EB80001C4901EBC8
:1059B00040082348062202A9836F404698479DF875
:1059C0000B00184981F83300084690F83300401E58
:1059D00000EB80001C4901EB80091948142204A93E
:1059E000836F484698479DF81EA0BAF1340F02D045
:1059F000BAF1350F03D12846FBF73AFD50E70CE02A
:105A00002846FBF735FD08E02846FBF731FD04E0AA
:105A10002846FBF72DFD00E000BF00BF00BF3FE7B9
:105A200000D00708BC150020436F6E666967726579
:105A30006420252E3264204465746563746F72009F
:105A400000120020A0FD070818FA07087CB50546DB
:105A500000241BE004EB84000E4901EB400600200B
:105A6000009001900C4806226946D0F88C303046F0
:105A700098479DF8020038B99DF8010020B99DF8BB
:105A8000000008B920467CBD601C84B2AC42E1DB5A
:105A90000020F8E700D0070800120020024600218D
:105AA00007E00648405C904201D101207047481C45
:105AB000C1B21229F5DB0020F8E70000182A02081D
:105AC00010B504461E210448FAF795FB03A10248CD
:105AD00019F06CFB10BD000054160020506C65617D
